{
  "contractName": "RCoin",
  "abi": [
    {
      "constant": false,
      "inputs": [],
      "name": "renounceOwnership",
      "outputs": [],
      "payable": false,
      "stateMutability": "nonpayable",
      "type": "function"
    },
    {
      "constant": true,
      "inputs": [],
      "name": "owner",
      "outputs": [
        {
          "name": "",
          "type": "address"
        }
      ],
      "payable": false,
      "stateMutability": "view",
      "type": "function"
    },
    {
      "constant": false,
      "inputs": [
        {
          "name": "_newOwner",
          "type": "address"
        }
      ],
      "name": "transferOwnership",
      "outputs": [],
      "payable": false,
      "stateMutability": "nonpayable",
      "type": "function"
    },
    {
      "constant": true,
      "inputs": [],
      "name": "admin",
      "outputs": [
        {
          "name": "",
          "type": "address"
        }
      ],
      "payable": false,
      "stateMutability": "view",
      "type": "function"
    },
    {
      "inputs": [],
      "payable": false,
      "stateMutability": "nonpayable",
      "type": "constructor"
    },
    {
      "anonymous": false,
      "inputs": [
        {
          "indexed": true,
          "name": "_from",
          "type": "address"
        },
        {
          "indexed": true,
          "name": "_to",
          "type": "address"
        },
        {
          "indexed": false,
          "name": "_value",
          "type": "uint256"
        }
      ],
      "name": "Transfer",
      "type": "event"
    },
    {
      "anonymous": false,
      "inputs": [
        {
          "indexed": true,
          "name": "previousOwner",
          "type": "address"
        }
      ],
      "name": "OwnershipRenounced",
      "type": "event"
    },
    {
      "anonymous": false,
      "inputs": [
        {
          "indexed": true,
          "name": "previousOwner",
          "type": "address"
        },
        {
          "indexed": true,
          "name": "newOwner",
          "type": "address"
        }
      ],
      "name": "OwnershipTransferred",
      "type": "event"
    },
    {
      "constant": false,
      "inputs": [
        {
          "name": "name",
          "type": "bytes32"
        },
        {
          "name": "price",
          "type": "uint256"
        }
      ],
      "name": "addProduct",
      "outputs": [
        {
          "name": "productName",
          "type": "bytes32"
        }
      ],
      "payable": false,
      "stateMutability": "nonpayable",
      "type": "function"
    },
    {
      "constant": false,
      "inputs": [
        {
          "name": "receiver",
          "type": "address"
        },
        {
          "name": "amount",
          "type": "uint256"
        }
      ],
      "name": "sendCoin",
      "outputs": [
        {
          "name": "sufficient",
          "type": "bool"
        }
      ],
      "payable": false,
      "stateMutability": "nonpayable",
      "type": "function"
    },
    {
      "constant": true,
      "inputs": [
        {
          "name": "addr",
          "type": "address"
        }
      ],
      "name": "getBalance",
      "outputs": [
        {
          "name": "",
          "type": "uint256"
        }
      ],
      "payable": false,
      "stateMutability": "view",
      "type": "function"
    },
    {
      "constant": false,
      "inputs": [
        {
          "name": "productName",
          "type": "bytes32"
        },
        {
          "name": "rating",
          "type": "uint256"
        }
      ],
      "name": "rateProduct",
      "outputs": [
        {
          "name": "",
          "type": "uint256"
        }
      ],
      "payable": false,
      "stateMutability": "nonpayable",
      "type": "function"
    }
  ],
  "bytecode": "0x608060405234801561001057600080fd5b50336000806101000a81548173ffffffffffffffffffffffffffffffffffffffff021916908373ffffffffffffffffffffffffffffffffffffffff160217905550620f4240600160003373ffffffffffffffffffffffffffffffffffffffff1673ffffffffffffffffffffffffffffffffffffffff1681526020019081526020016000208190555033600360006101000a81548173ffffffffffffffffffffffffffffffffffffffff021916908373ffffffffffffffffffffffffffffffffffffffff160217905550610b30806100e86000396000f30060806040526004361061008e576000357c0100000000000000000000000000000000000000000000000000000000900463ffffffff168063194c9d2e14610093578063715018a6146100ea5780637743677f146101015780638da5cb5b1461015057806390b98a11146101a7578063f2fde38b1461020c578063f851a4401461024f578063f8b2cb4f146102a6575b600080fd5b34801561009f57600080fd5b506100cc6004803603810190808035600019169060200190929190803590602001909291905050506102fd565b60405180826000191660001916815260200191505060405180910390f35b3480156100f657600080fd5b506100ff6104f0565b005b34801561010d57600080fd5b5061013a6004803603810190808035600019169060200190929190803590602001909291905050506105f2565b6040518082815260200191505060405180910390f35b34801561015c57600080fd5b50610165610728565b604051808273ffffffffffffffffffffffffffffffffffffffff1673ffffffffffffffffffffffffffffffffffffffff16815260200191505060405180910390f35b3480156101b357600080fd5b506101f2600480360381019080803573ffffffffffffffffffffffffffffffffffffffff1690602001909291908035906020019092919050505061074d565b604051808215151515815260200191505060405180910390f35b34801561021857600080fd5b5061024d600480360381019080803573ffffffffffffffffffffffffffffffffffffffff169060200190929190505050610934565b005b34801561025b57600080fd5b5061026461099b565b604051808273ffffffffffffffffffffffffffffffffffffffff1673ffffffffffffffffffffffffffffffffffffffff16815260200191505060405180910390f35b3480156102b257600080fd5b506102e7600480360381019080803573ffffffffffffffffffffffffffffffffffffffff1690602001909291905050506109c1565b6040518082815260200191505060405180910390f35b6000600360009054906101000a900473ffffffffffffffffffffffffffffffffffffffff1673ffffffffffffffffffffffffffffffffffffffff163373ffffffffffffffffffffffffffffffffffffffff161415156103c4576040517f08c379a000000000000000000000000000000000000000000000000000000000815260040180806020018281038252601e8152602001807f6f6e6c792061646d696e2063616e206372656174652070726f6475637473000081525060200191505060405180910390fd5b60008211151561043c576040517f08c379a00000000000000000000000000000000000000000000000000000000081526004018080602001828103825260188152602001807f756e61636365707461626c652070726963652076616c7565000000000000000081525060200191505060405180910390fd5b60606040519081016040528084600019168152602001838152602001604080519081016040528060008152602001600081525081525060026000856000191660001916815260200190815260200160002060008201518160000190600019169055602082015181600101556040820151816002016000820151816000015560208201518160010155505090505060026000846000191660001916815260200190815260200160002060000154905092915050565b6000809054906101000a900473ffffffffffffffffffffffffffffffffffffffff1673ffffffffffffffffffffffffffffffffffffffff163373ffffffffffffffffffffffffffffffffffffffff1614151561054b57600080fd5b6000809054906101000a900473ffffffffffffffffffffffffffffffffffffffff1673ffffffffffffffffffffffffffffffffffffffff167ff8df31144d9c2f0f6b59d69b8b98abd5459d07f2742c4df920b25aae33c6482060405160405180910390a260008060006101000a81548173ffffffffffffffffffffffffffffffffffffffff021916908373ffffffffffffffffffffffffffffffffffffffff160217905550565b6000806000808410158015610608575060058411155b151561067c576040517f08c379a00000000000000000000000000000000000000000000000000000000081526004018080602001828103825260148152602001807f696e76616c696420726174696e672076616c756500000000000000000000000081525060200191505060405180910390fd5b6002600086600019166000191681526020019081526020016000206002016000015491506002600086600019166000191681526020019081526020016000206002016001015490506001810184828402018115156106d657fe5b0460026000876000191660001916815260200190815260200160002060020160000181905550600260008660001916600019168152602001908152602001600020600201600001549250505092915050565b6000809054906101000a900473ffffffffffffffffffffffffffffffffffffffff1681565b600081600160003373ffffffffffffffffffffffffffffffffffffffff1673ffffffffffffffffffffffffffffffffffffffff1681526020019081526020016000205411151561082b576040517f08c379a00000000000000000000000000000000000000000000000000000000081526004018080602001828103825260248152602001807f6e6f7420656e6f7567682062616c616e636520696e20736f757263652061636381526020017f6f756e740000000000000000000000000000000000000000000000000000000081525060400191505060405180910390fd5b81600160003373ffffffffffffffffffffffffffffffffffffffff1673ffffffffffffffffffffffffffffffffffffffff1681526020019081526020016000206000828254039250508190555081600160008573ffffffffffffffffffffffffffffffffffffffff1673ffffffffffffffffffffffffffffffffffffffff168152602001908152602001600020600082825401925050819055508273ffffffffffffffffffffffffffffffffffffffff163373ffffffffffffffffffffffffffffffffffffffff167fddf252ad1be2c89b69c2b068fc378daa952ba7f163c4a11628f55a4df523b3ef846040518082815260200191505060405180910390a36001905092915050565b6000809054906101000a900473ffffffffffffffffffffffffffffffffffffffff1673ffffffffffffffffffffffffffffffffffffffff163373ffffffffffffffffffffffffffffffffffffffff1614151561098f57600080fd5b61099881610a0a565b50565b600360009054906101000a900473ffffffffffffffffffffffffffffffffffffffff1681565b6000600160008373ffffffffffffffffffffffffffffffffffffffff1673ffffffffffffffffffffffffffffffffffffffff168152602001908152602001600020549050919050565b600073ffffffffffffffffffffffffffffffffffffffff168173ffffffffffffffffffffffffffffffffffffffff1614151515610a4657600080fd5b8073ffffffffffffffffffffffffffffffffffffffff166000809054906101000a900473ffffffffffffffffffffffffffffffffffffffff1673ffffffffffffffffffffffffffffffffffffffff167f8be0079c531659141344cd1fd0a4f28419497f9722a3daafe3b4186f6b6457e060405160405180910390a3806000806101000a81548173ffffffffffffffffffffffffffffffffffffffff021916908373ffffffffffffffffffffffffffffffffffffffff160217905550505600a165627a7a7230582008b73fff8ccca2411c2ece851c657796a57a4fe313ae1a453750210a43eb1d9b0029",
  "source": "pragma solidity ^0.4.18;\n\nimport \"../node_modules/openzeppelin-solidity/contracts/ownership/Ownable.sol\";\n\ncontract RCoin is Ownable { \n    \n    struct Rating {\n        uint current;\n        uint amount;\n    }\n\n    struct Product {\n        bytes32 name;\n        uint price;\n        Rating rating;\n    }\n\n    mapping (address => uint) balances;\n\n    //Dynamically sized array of products\n    mapping (bytes32 => Product)  products;\n\n    address public admin;\n\n    event Transfer(address indexed _from, address indexed _to, uint256 _value);\n    \n    constructor() public {\n        balances[msg.sender] = 1000000;\n        admin = msg.sender;\n    }\n\n    // constructor(bytes32[] productNames, uint[] productPrices) public {\n    //     balances[msg.sender] = 1000000;\n    //     admin = msg.sender;\n\n    //     for (uint i = 0; i < productNames.length; i++) {\n    //         products.push(Product(\n    //             {id: products.length,\n    //             name: productNames[i],\n    //             price: productPrices[i],\n    //             rating: Rating(\n    //                 {current: 0,\n    //                 amount: 0\n    //                 })\n    //             }\n    //             )\n    //         );\n    //     }\n    // }\n\n    function addProduct(bytes32 name, uint price) public returns (bytes32 productName) {\n        require(msg.sender == admin, \"only admin can create products\");\n        require(price > 0, \"unacceptable price value\");\n        \n        products[name] = Product({\n            name: name,\n            price: price,\n            rating: Rating({\n                current: 0,\n                amount: 0\n            })\n            });\n\n        return products[name].name;\n    }\n\n    function sendCoin(address receiver, uint amount) public returns(bool sufficient) {\n        require(balances[msg.sender] > amount, \"not enough balance in source account\");\n\n        balances[msg.sender] -= amount;\n        balances[receiver] += amount;\n\n        emit Transfer(msg.sender, receiver, amount);\n\n        return true;\n    }\n\n    function getBalance(address addr) public view returns (uint) {\n        return balances[addr];\n    }\n\n    function rateProduct(bytes32 productName, uint rating) public returns (uint) {\n        require(rating >= 0 && rating <= 5, \"invalid rating value\");\n        uint current = products[productName].rating.current;\n        uint amount = products[productName].rating.amount;\n        products[productName].rating.current = ((current * amount) + rating)/(amount + 1);\n        return products[productName].rating.current;\n    }\n}",
  "sourcePath": "/Users/mac-ubby/Documents/testsolidity/contracts/RCoin.sol",
  "compiler": {
    "name": "solc",
    "version": "0.4.24+commit.e67f0147.Emscripten.clang"
  },
  "schemaVersion": "2.0.1",
  "updatedAt": "2018-08-07T21:13:42.648Z"
}